{
  "contractName": "main",
  "abi": [
    {
      "inputs": [],
      "stateMutability": "nonpayable",
      "type": "constructor"
    },
    {
      "inputs": [],
      "name": "contrato",
      "outputs": [
        {
          "internalType": "address",
          "name": "",
          "type": "address"
        }
      ],
      "stateMutability": "view",
      "type": "function",
      "constant": true
    },
    {
      "inputs": [],
      "name": "owner",
      "outputs": [
        {
          "internalType": "address",
          "name": "",
          "type": "address"
        }
      ],
      "stateMutability": "view",
      "type": "function",
      "constant": true
    },
    {
      "inputs": [],
      "name": "getOwner",
      "outputs": [
        {
          "internalType": "address",
          "name": "",
          "type": "address"
        }
      ],
      "stateMutability": "view",
      "type": "function",
      "constant": true
    },
    {
      "inputs": [],
      "name": "getContract",
      "outputs": [
        {
          "internalType": "address",
          "name": "",
          "type": "address"
        }
      ],
      "stateMutability": "view",
      "type": "function",
      "constant": true
    },
    {
      "inputs": [
        {
          "internalType": "address",
          "name": "_destinatario",
          "type": "address"
        },
        {
          "internalType": "uint256",
          "name": "_numTokens",
          "type": "uint256"
        }
      ],
      "name": "send_tokens",
      "outputs": [],
      "stateMutability": "nonpayable",
      "type": "function"
    },
    {
      "inputs": [
        {
          "internalType": "address",
          "name": "_direccion",
          "type": "address"
        }
      ],
      "name": "balance_direccion",
      "outputs": [
        {
          "internalType": "uint256",
          "name": "",
          "type": "uint256"
        }
      ],
      "stateMutability": "view",
      "type": "function",
      "constant": true
    },
    {
      "inputs": [],
      "name": "balance_total",
      "outputs": [
        {
          "internalType": "uint256",
          "name": "",
          "type": "uint256"
        }
      ],
      "stateMutability": "view",
      "type": "function",
      "constant": true
    }
  ],
  "bytecode": "0x608060405234801561001057600080fd5b506127106040516100209061010d565b80828152602001915050604051809103906000f080158015610046573d6000803e3d6000fd5b506000806101000a81548173ffffffffffffffffffffffffffffffffffffffff021916908373ffffffffffffffffffffffffffffffffffffffff16021790555033600160006101000a81548173ffffffffffffffffffffffffffffffffffffffff021916908373ffffffffffffffffffffffffffffffffffffffff16021790555030600260006101000a81548173ffffffffffffffffffffffffffffffffffffffff021916908373ffffffffffffffffffffffffffffffffffffffff16021790555061011a565b61102d8061069e83390190565b610575806101296000396000f3fe608060405234801561001057600080fd5b506004361061007d5760003560e01c8063958f85bd1161005b578063958f85bd14610108578063a78725471461013c578063c473de2b1461018a578063e1a01e67146101e25761007d565b8063531e923614610082578063893d20e8146100a05780638da5cb5b146100d4575b600080fd5b61008a610216565b6040518082815260200191505060405180910390f35b6100a8610302565b604051808273ffffffffffffffffffffffffffffffffffffffff16815260200191505060405180910390f35b6100dc61032c565b604051808273ffffffffffffffffffffffffffffffffffffffff16815260200191505060405180910390f35b610110610352565b604051808273ffffffffffffffffffffffffffffffffffffffff16815260200191505060405180910390f35b6101886004803603604081101561015257600080fd5b81019080803573ffffffffffffffffffffffffffffffffffffffff1690602001909291908035906020019092919050505061037c565b005b6101cc600480360360208110156101a057600080fd5b81019080803573ffffffffffffffffffffffffffffffffffffffff16906020019092919050505061044d565b6040518082815260200191505060405180910390f35b6101ea610519565b604051808273ffffffffffffffffffffffffffffffffffffffff16815260200191505060405180910390f35b60008060009054906101000a900473ffffffffffffffffffffffffffffffffffffffff1673ffffffffffffffffffffffffffffffffffffffff166370a08231600260009054906101000a900473ffffffffffffffffffffffffffffffffffffffff166040518263ffffffff1660e01b8152600401808273ffffffffffffffffffffffffffffffffffffffff16815260200191505060206040518083038186803b1580156102c257600080fd5b505afa1580156102d6573d6000803e3d6000fd5b505050506040513d60208110156102ec57600080fd5b8101908080519060200190929190505050905090565b6000600160009054906101000a900473ffffffffffffffffffffffffffffffffffffffff16905090565b600160009054906101000a900473ffffffffffffffffffffffffffffffffffffffff1681565b6000600260009054906101000a900473ffffffffffffffffffffffffffffffffffffffff16905090565b60008054906101000a900473ffffffffffffffffffffffffffffffffffffffff1673ffffffffffffffffffffffffffffffffffffffff1663a9059cbb83836040518363ffffffff1660e01b8152600401808373ffffffffffffffffffffffffffffffffffffffff16815260200182815260200192505050602060405180830381600087803b15801561040d57600080fd5b505af1158015610421573d6000803e3d6000fd5b505050506040513d602081101561043757600080fd5b8101908080519060200190929190505050505050565b60008060009054906101000a900473ffffffffffffffffffffffffffffffffffffffff1673ffffffffffffffffffffffffffffffffffffffff166370a08231836040518263ffffffff1660e01b8152600401808273ffffffffffffffffffffffffffffffffffffffff16815260200191505060206040518083038186803b1580156104d757600080fd5b505afa1580156104eb573d6000803e3d6000fd5b505050506040513d602081101561050157600080fd5b81019080805190602001909291905050509050919050565b600260009054906101000a900473ffffffffffffffffffffffffffffffffffffffff168156fea2646970667358221220aeeac39aeb9f95adaa24340458ec51a43d99d276535de850bd31260d49349bb364736f6c634300060c0033608060405234801561001057600080fd5b5060405161102d38038061102d83398181016040528101906100329190610099565b806002819055506002546000803373ffffffffffffffffffffffffffffffffffffffff1673ffffffffffffffffffffffffffffffffffffffff16815260200190815260200160002081905550506100e3565b600081519050610093816100cc565b92915050565b6000602082840312156100ab57600080fd5b60006100b984828501610084565b91505092915050565b6000819050919050565b6100d5816100c2565b81146100e057600080fd5b50565b610f3b806100f26000396000f3fe608060405234801561001057600080fd5b506004361061009e5760003560e01c8063313ce56711610066578063313ce5671461015b57806370a082311461017957806395d89b41146101a9578063a9059cbb146101c7578063dd62ed3e146101f75761009e565b806306fdde03146100a3578063095ea7b3146100c157806318160ddd146100f15780631d43cc981461010f57806323b872dd1461012b575b600080fd5b6100ab610227565b6040516100b89190610d8a565b60405180910390f35b6100db60048036038101906100d69190610bd8565b610260565b6040516100e89190610d6f565b60405180910390f35b6100f9610352565b6040516101069190610dec565b60405180910390f35b61012960048036038101906101249190610c14565b61035c565b005b61014560048036038101906101409190610b89565b6103bb565b6040516101529190610d6f565b60405180910390f35b6101636107a2565b6040516101709190610e07565b60405180910390f35b610193600480360381019061018e9190610b24565b6107a7565b6040516101a09190610dec565b60405180910390f35b6101b16107ef565b6040516101be9190610d8a565b60405180910390f35b6101e160048036038101906101dc9190610bd8565b610828565b6040516101ee9190610d6f565b60405180910390f35b610211600480360381019061020c9190610b4d565b610a40565b60405161021e9190610dec565b60405180910390f35b6040518060400160405280600a81526020017f4b616c6f6d546f6b656e0000000000000000000000000000000000000000000081525081565b600081600160003373ffffffffffffffffffffffffffffffffffffffff1673ffffffffffffffffffffffffffffffffffffffff16815260200190815260200160002060008573ffffffffffffffffffffffffffffffffffffffff1673ffffffffffffffffffffffffffffffffffffffff168152602001908152602001600020819055508273ffffffffffffffffffffffffffffffffffffffff163373ffffffffffffffffffffffffffffffffffffffff167f8c5be1e5ebec7d5bd14f71427d1e84f3dd0314c0f7b2291e5b200ac8c7c3b925846040516103409190610dec565b60405180910390a36001905092915050565b6000600254905090565b80600260008282540192505081905550806000803373ffffffffffffffffffffffffffffffffffffffff1673ffffffffffffffffffffffffffffffffffffffff1681526020019081526020016000206000828254019250508190555050565b60008060008573ffffffffffffffffffffffffffffffffffffffff1673ffffffffffffffffffffffffffffffffffffffff1681526020019081526020016000205482111561043e576040517f08c379a000000000000000000000000000000000000000000000000000000000815260040161043590610dac565b60405180910390fd5b600160008573ffffffffffffffffffffffffffffffffffffffff1673ffffffffffffffffffffffffffffffffffffffff16815260200190815260200160002060003373ffffffffffffffffffffffffffffffffffffffff1673ffffffffffffffffffffffffffffffffffffffff168152602001908152602001600020548211156104fd576040517f08c379a00000000000000000000000000000000000000000000000000000000081526004016104f490610dcc565b60405180910390fd5b61054e826000808773ffffffffffffffffffffffffffffffffffffffff1673ffffffffffffffffffffffffffffffffffffffff16815260200190815260200160002054610ac790919063ffffffff16565b6000808673ffffffffffffffffffffffffffffffffffffffff1673ffffffffffffffffffffffffffffffffffffffff1681526020019081526020016000208190555061061f82600160008773ffffffffffffffffffffffffffffffffffffffff1673ffffffffffffffffffffffffffffffffffffffff16815260200190815260200160002060003373ffffffffffffffffffffffffffffffffffffffff1673ffffffffffffffffffffffffffffffffffffffff16815260200190815260200160002054610ac790919063ffffffff16565b600160008673ffffffffffffffffffffffffffffffffffffffff1673ffffffffffffffffffffffffffffffffffffffff16815260200190815260200160002060003373ffffffffffffffffffffffffffffffffffffffff1673ffffffffffffffffffffffffffffffffffffffff168152602001908152602001600020819055506106f0826000808673ffffffffffffffffffffffffffffffffffffffff1673ffffffffffffffffffffffffffffffffffffffff16815260200190815260200160002054610ade90919063ffffffff16565b6000808573ffffffffffffffffffffffffffffffffffffffff1673ffffffffffffffffffffffffffffffffffffffff168152602001908152602001600020819055508273ffffffffffffffffffffffffffffffffffffffff168473ffffffffffffffffffffffffffffffffffffffff167fddf252ad1be2c89b69c2b068fc378daa952ba7f163c4a11628f55a4df523b3ef8460405161078f9190610dec565b60405180910390a3600190509392505050565b601281565b60008060008373ffffffffffffffffffffffffffffffffffffffff1673ffffffffffffffffffffffffffffffffffffffff168152602001908152602001600020549050919050565b6040518060400160405280600381526020017f4b4c4d000000000000000000000000000000000000000000000000000000000081525081565b60008060003373ffffffffffffffffffffffffffffffffffffffff1673ffffffffffffffffffffffffffffffffffffffff168152602001908152602001600020548211156108ab576040517f08c379a00000000000000000000000000000000000000000000000000000000081526004016108a290610dac565b60405180910390fd5b6108fc826000803373ffffffffffffffffffffffffffffffffffffffff1673ffffffffffffffffffffffffffffffffffffffff16815260200190815260200160002054610ac790919063ffffffff16565b6000803373ffffffffffffffffffffffffffffffffffffffff1673ffffffffffffffffffffffffffffffffffffffff1681526020019081526020016000208190555061098f826000808673ffffffffffffffffffffffffffffffffffffffff1673ffffffffffffffffffffffffffffffffffffffff16815260200190815260200160002054610ade90919063ffffffff16565b6000808573ffffffffffffffffffffffffffffffffffffffff1673ffffffffffffffffffffffffffffffffffffffff168152602001908152602001600020819055508273ffffffffffffffffffffffffffffffffffffffff163373ffffffffffffffffffffffffffffffffffffffff167fddf252ad1be2c89b69c2b068fc378daa952ba7f163c4a11628f55a4df523b3ef84604051610a2e9190610dec565b60405180910390a36001905092915050565b6000600160008473ffffffffffffffffffffffffffffffffffffffff1673ffffffffffffffffffffffffffffffffffffffff16815260200190815260200160002060008373ffffffffffffffffffffffffffffffffffffffff1673ffffffffffffffffffffffffffffffffffffffff16815260200190815260200160002054905092915050565b600082821115610ad357fe5b818303905092915050565b600080828401905083811015610af057fe5b8091505092915050565b600081359050610b0981610ed7565b92915050565b600081359050610b1e81610eee565b92915050565b600060208284031215610b3657600080fd5b6000610b4484828501610afa565b91505092915050565b60008060408385031215610b6057600080fd5b6000610b6e85828601610afa565b9250506020610b7f85828601610afa565b9150509250929050565b600080600060608486031215610b9e57600080fd5b6000610bac86828701610afa565b9350506020610bbd86828701610afa565b9250506040610bce86828701610b0f565b9150509250925092565b60008060408385031215610beb57600080fd5b6000610bf985828601610afa565b9250506020610c0a85828601610b0f565b9150509250929050565b600060208284031215610c2657600080fd5b6000610c3484828501610b0f565b91505092915050565b610c4681610e50565b82525050565b6000610c5782610e22565b610c618185610e2d565b9350610c71818560208601610e93565b610c7a81610ec6565b840191505092915050565b6000610c92602183610e2d565b91507f4e6f20646973706f6e657320646520737566696369656e74657320746f6b656e60008301527f73000000000000000000000000000000000000000000000000000000000000006020830152604082019050919050565b6000610cf8603883610e2d565b91507f4e6f207469656e6573206c6f7320737566696369656e74657320746f6b656e7360008301527f207065726d697469646f7320706f7220656c206f776e657200000000000000006020830152604082019050919050565b610d5a81610e7c565b82525050565b610d6981610e86565b82525050565b6000602082019050610d846000830184610c3d565b92915050565b60006020820190508181036000830152610da48184610c4c565b905092915050565b60006020820190508181036000830152610dc581610c85565b9050919050565b60006020820190508181036000830152610de581610ceb565b9050919050565b6000602082019050610e016000830184610d51565b92915050565b6000602082019050610e1c6000830184610d60565b92915050565b600081519050919050565b600082825260208201905092915050565b6000610e4982610e5c565b9050919050565b60008115159050919050565b600073ffffffffffffffffffffffffffffffffffffffff82169050919050565b6000819050919050565b600060ff82169050919050565b60005b83811015610eb1578082015181840152602081019050610e96565b83811115610ec0576000848401525b50505050565b6000601f19601f8301169050919050565b610ee081610e3e565b8114610eeb57600080fd5b50565b610ef781610e7c565b8114610f0257600080fd5b5056fea2646970667358221220b091ee1361e6d176bdc0b1c7c056be29b9ccf118e97d46097fff230ee35eb76a64736f6c634300060c0033",
  "immutableReferences": {},
  "source": "// SPDX-License-Identifier: MIT\r\npragma solidity >=0.4.4 <0.7.0;\r\nimport \"./ERC-20.sol\";\r\n\r\ncontract main {\r\n\r\n    // Instancia del contrato token\r\n    ERC20Basic private token;\r\n\r\n    // Owner del contrato\r\n    address public owner;\r\n\r\n    // Diereccion del Smart Contract\r\n    address public contrato;\r\n\r\n    // Constructor\r\n    constructor () public {\r\n        token = new ERC20Basic(10000);\r\n        owner = msg.sender;\r\n        contrato = address(this);\r\n    }\r\n\r\n    // Obtenemos la direccion del Owner\r\n    function getOwner() public view returns (address) {\r\n        return owner;\r\n    }\r\n\r\n    //\r\n    function getContract() public view returns (address) {\r\n        return contrato;\r\n    }\r\n\r\n    // Compramos tokens mediante: direccion de destino y cantidad de tokens\r\n    function send_tokens (address _destinatario, uint _numTokens) public {\r\n        token.transfer(_destinatario, _numTokens);\r\n    }\r\n\r\n    // Obtenemos el balance de tokens de una direccion\r\n    function balance_direccion(address _direccion) public view returns (uint) {\r\n        return token.balanceOf(_direccion);\r\n    }\r\n\r\n    // Obtenemos el balance de tokens total del smart contract\r\n    function balance_total() public view returns (uint) {\r\n        return token.balanceOf(contrato);\r\n    }\r\n}",
  "sourcePath": "D:\\Udemy\\Crea-DApps-con-Tokens-NFT-en-Ethereum-usando-Truffle-y-React\\BLOQUE 5\\ERC20\\src\\contracts\\main.sol",
  "compiler": {
    "name": "solc",
    "version": "0.6.12+commit.27d51765.Emscripten.clang"
  },
  "schemaVersion": "3.4.3",
  "updatedAt": "2021-12-21T12:35:45.032Z",
  "networkType": "ethereum",
  "devdoc": {
    "kind": "dev",
    "methods": {},
    "version": 1
  },
  "userdoc": {
    "kind": "user",
    "methods": {},
    "version": 1
  }
}