{
  "contractName": "Oracle",
  "abi": [
    {
      "inputs": [],
      "stateMutability": "nonpayable",
      "type": "constructor"
    },
    {
      "anonymous": false,
      "inputs": [],
      "name": "Evento_calbackNewData",
      "type": "event"
    },
    {
      "inputs": [],
      "name": "numberAsteroids",
      "outputs": [
        {
          "internalType": "uint256",
          "name": "",
          "type": "uint256"
        }
      ],
      "stateMutability": "view",
      "type": "function",
      "constant": true
    },
    {
      "inputs": [],
      "name": "update",
      "outputs": [],
      "stateMutability": "nonpayable",
      "type": "function"
    },
    {
      "inputs": [
        {
          "internalType": "uint256",
          "name": "_num",
          "type": "uint256"
        }
      ],
      "name": "setNumberAsteroids",
      "outputs": [],
      "stateMutability": "nonpayable",
      "type": "function"
    }
  ],
  "bytecode": "0x608060405234801561001057600080fd5b50336000806101000a81548173ffffffffffffffffffffffffffffffffffffffff021916908373ffffffffffffffffffffffffffffffffffffffff160217905550610329806100606000396000f3fe608060405234801561001057600080fd5b50600436106100415760003560e01c8063402bc6bb14610046578063829400cb14610062578063a2e6204514610080575b600080fd5b610060600480360381019061005b919061021f565b61008a565b005b61006a610122565b604051610077919061025b565b60405180910390f35b610088610128565b005b60008054906101000a900473ffffffffffffffffffffffffffffffffffffffff1673ffffffffffffffffffffffffffffffffffffffff163373ffffffffffffffffffffffffffffffffffffffff1614610118576040517f08c379a000000000000000000000000000000000000000000000000000000000815260040161010f906102d3565b60405180910390fd5b8060018190555050565b60015481565b60008054906101000a900473ffffffffffffffffffffffffffffffffffffffff1673ffffffffffffffffffffffffffffffffffffffff163373ffffffffffffffffffffffffffffffffffffffff16146101b6576040517f08c379a00000000000000000000000000000000000000000000000000000000081526004016101ad906102d3565b60405180910390fd5b7f651ae9d0e79956cddca8285d5de8d74dc504be2026ca1c658534c4053f121d6960405160405180910390a1565b600080fd5b6000819050919050565b6101fc816101e9565b811461020757600080fd5b50565b600081359050610219816101f3565b92915050565b600060208284031215610235576102346101e4565b5b60006102438482850161020a565b91505092915050565b610255816101e9565b82525050565b6000602082019050610270600083018461024c565b92915050565b600082825260208201905092915050565b7f4f6e6c79206f776e65722e000000000000000000000000000000000000000000600082015250565b60006102bd600b83610276565b91506102c882610287565b602082019050919050565b600060208201905081810360008301526102ec816102b0565b905091905056fea2646970667358221220ec9d64170150ad22c7b26614b4c830e869bca5ced6e8e3454938efb76f7eb4c764736f6c634300080a0033",
  "immutableReferences": {},
  "source": "// SPDX-License-Identifier: MIT\r\npragma solidity ^0.8.0;\r\n\r\ncontract Oracle {\r\n\r\n    //https://api.nasa.gov/neo/rest/v1/feed?start_date=START_DATE&end_date=END_DATE&api_key=API_KEY\r\n\r\n    // Direccion del Owner\r\n    address owner;\r\n\r\n    // Numero asteroids\r\n    uint public numberAsteroids;\r\n\r\n    constructor(){\r\n        owner = msg.sender;\r\n    }\r\n\r\n    event Evento_calbackNewData();\r\n\r\n    modifier OnlyOwner() {\r\n        require(msg.sender == owner, 'Only owner.');\r\n        _;\r\n    }\r\n\r\n    // Recibe datos del oraculo\r\n    function update() public OnlyOwner {\r\n        emit Evento_calbackNewData();\r\n    }\r\n\r\n    // Funcion para configuracion manual del numero de asteroides\r\n    function setNumberAsteroids(uint _num) public OnlyOwner {\r\n        numberAsteroids = _num;\r\n    }\r\n\r\n\r\n}",
  "sourcePath": "D:\\Udemy\\Crea-DApps-con-Tokens-NFT-en-Ethereum-usando-Truffle-y-React\\Oracle\\contracts\\Oracle.sol",
  "compiler": {
    "name": "solc",
    "version": "0.8.10+commit.fc410830.Emscripten.clang"
  },
  "schemaVersion": "3.4.3",
  "updatedAt": "2021-11-16T11:52:46.838Z",
  "networkType": "ethereum",
  "devdoc": {
    "kind": "dev",
    "methods": {},
    "version": 1
  },
  "userdoc": {
    "kind": "user",
    "methods": {},
    "version": 1
  }
}